:020000040800F2
:1000000048500020E902000813260008392400089F
:1000100011260008730700087D2B0008000000006F
:10002000000000000000000000000000290200089D
:10003000690900080000000085020008DD260008AC
:100040000303000803030008030300080303000878
:100050000303000803030008030300080303000868
:100060000303000803030008030300080303000858
:10007000D508000803030008030300080303000871
:100080000303000803030008030300080303000838
:100090007507000881070008030300080303000830
:1000A0000303000803030008030300080303000818
:1000B000AD2700080303000803030008030300083A
:1000C00003030008030300080303000803030008F8
:1000D00003030008BD2A000803030008C92A00081A
:1000E00003030008030300080303000803030008D8
:1000F00003030008030300080303000803030008C8
:1001000003030008030300080303000803030008B7
:1001100003030008030300080303000803030008A7
:100120000303000803030008030300080303000897
:100130000303000803030008030300080303000887
:100140008D0700089907000803030008030300084F
:100150000303000803030008E10800080303000884
:100160000303000803030008030300080303000857
:100170000303000803030008030300080000000055
:10018000030300080303000800F002F800F03CF845
:100190000AA090E8000C82448344AAF10107DA45E2
:1001A00001D100F031F8AFF2090EBAE80F0013F0F8
:1001B000010F18BFFB1A43F001031847C85600008F
:1001C000E8560000103A24BF78C878C1FAD8520720
:1001D00024BF30C830C144BF04680C6070470000C1
:1001E0000023002400250026103A28BF78C1FBD840
:1001F000520728BF30C148BF0B6070471FB505F0DC
:10020000C0FA1FBD10B510BD00F074F91146FFF71C
:10021000F5FF03F053FD00F092F903B4FFF7F2FF8E
:1002200003BC00F095F900002C4B19680868B0E891
:10023000F04F80F30988BFF36F8F4FF0000080F319
:10024000118870470000000008480068006880F3CB
:1002500008884FF0000080F3148862B661B6BFF3DF
:100260004F8FBFF36F8F00DF00BF00BF08ED00E0CE
:10027000DFF80C00016841F470010160704700BFB5
:1002800088ED00E0EFF30980BFF36F8F134B1A681E
:100290001EF0100F08BF20ED108A20E9F04F10600B
:1002A00009B44FF0500080F31188BFF34F8FBFF3B4
:1002B0006F8F04F02FFB4FF0000080F3118809BC12
:1002C00019680868B0E8F04F1EF0100F08BFB0ECD6
:1002D000108A80F30988BFF36F8F704748000020B1
:1002E000EFF3058070470000094880470948004740
:1002F000FEE7FEE7FEE7FEE7FEE7FEE7FEE7FEE7D6
:10030000FEE7FEE704480549054A064B7047000032
:100310009D27000889010008484A00204850002015
:10032000484C0020484C002053EA020C00F0698041
:100330002DE9F04B4FF00006002B1FBFB3FA83F5F9
:1003400003FA05F424FA05F65E4012BF1643B2FA2A
:1003500082F502FA05F4C5F120051EBF22FA05FC5C
:1003600044EA0C04203556EA044C4FEA144418BF02
:10037000641C4FF000084FF00009904271EB030C31
:1003800039D3002919BFB1FA81F701FA07F6B0FA9B
:1003900080F700FA07F6C7F120071EBF20FA07FC16
:1003A00046EA0C062037B6FBF4FCA7EB0507103F26
:1003B00007F01F0BCBF120060CFA0BFB2CFA06F60C
:1003C00044BFB3460026202FA4BF5E464FF0000B6B
:1003D0005BEA060C08BF4FF0010B19EB0B09ABFBF6
:1003E000027C48EB0608C01B06FB02CC0BFB03CCCF
:1003F00071EB0C01C1E70B46024641464846BDE899
:10040000F08B13B54FF000004FF00001AFF3008008
:10041000BDE81C40704710B5203AC0F00B80B1E831
:100420001850203AA0E81850B1E81850A0E8185029
:10043000BFF4F5AF5FEA027C24BFB1E81850A0E832
:10044000185044BF18C918C0BDE810405FEA827C4C
:1004500024BF51F8043B40F8043B08BF7047D20763
:1004600028BF31F8023B48BF11F8012B28BF20F804
:10047000023B48BF00F8012B70474FF0000200B567
:10048000134694469646203922BFA0E80C50A0E8B7
:100490000C50B1F12001BFF4F7AF090728BFA0E865
:1004A0000C5048BF0CC05DF804EB890028BF40F831
:1004B000042B08BF704748BF20F8022B11F0804F73
:1004C00018BF00F8012B704770477047704710B590
:1004D00000F008F8006810BD10B5044600F002F8FE
:1004E000046010BD00487047E8490020004870478C
:1004F000E84900207546FFF7F9FFAE46050069465A
:10050000534620F00700854618B020B5FFF7FAFEE5
:10051000BDE820404FF000064FF000074FF0000804
:100520004FF0000B21F00701AC46ACE8C009ACE885
:10053000C009ACE8C009ACE8C0098D46704710B5E9
:100540000446AFF300802046BDE81040FFF765BECB
:1005500001491820ABBEFEE72600020070470000EC
:1005600080EC040A9FED0E0A80ED040A80ED050A76
:1005700080ED060A80ED070A80ED0B0A80ED090A7E
:1005800080ED0A0A80ED0F0A80ED100A80ED110A55
:1005900080ED120A80ED130A303080EC032A704798
:1005A0000000000010B5C0ED090A80ED0A0A30EE27
:1005B000C00A044680ED040AD0ED050AD0ED001A09
:1005C00030EE601A21EE211A80ED0F1A90ED011A1B
:1005D00021EE001A80ED101AB0EE001A00EEC10AEA
:1005E000D0ED060A04F1400030EE200AD4ED020AF4
:1005F00020EE200A84ED110A94ED0C0A02F00CFBA7
:1006000094ED0F0AD4ED100A04F14C0030EE200AEC
:10061000D4ED110A30EE200A84ED130A94ED0D0A90
:1006200002F0FAFA94ED050A84ED060A94ED040A44
:1006300084ED050A94ED130A10BD10B5C0ED090A4A
:1006400080ED0A0A30EEC00A044680ED040AD0EDBF
:10065000000A60EE800AC0ED0F0AD0ED070A30EE06
:10066000800A80ED070A90ED0C0A1C3002F0D4FAE3
:1006700094ED010AD4ED070A04F14C0060EE200A63
:10068000C4ED100A94ED040A94ED051A30EE410A07
:1006900094ED021A20EE010A84ED110A94ED0F1A6E
:1006A00071EE200A30EE800A84ED130A94ED0D0AF3
:1006B00002F0B2FA94ED040A84ED050A94ED130AEF
:1006C00010BD10B5C0ED090A80ED0A0A30EEC00A6F
:1006D000044680ED040A90ED0B1A70EEC10AC0EDDD
:1006E000080AD0ED000A60EE800AC0ED0F0AD0EDD6
:1006F000070A30EE800A80ED070A90ED0C0A1C30E4
:1007000002F08AFA94ED010AD4ED070A04F14C00D4
:1007100020EE201A84ED101A94ED040AD4ED050A97
:1007200030EE600AD4ED020A60EE200AC4ED110A30
:1007300094ED030AD4ED081A20EE210A84ED120A82
:10074000D4ED0F1A31EE811A71EE200A30EE800AD4
:1007500084ED130A94ED0D0A02F05EFA94ED040A9A
:1007600084ED050A94ED090A84ED0B0A94ED130A51
:1007700010BDFEE7014800F076BA00000403002037
:10078000014800F070BA000004030020014800F0A6
:100790006ABA00002C030020014800F064BA00008F
:1007A0002C03002030B58BB08D0701F003040DD56C
:1007B000C2F34F35D20042EA4402CDE90052C3F3FE
:1007C0004F320292DA0042EA440205E052010092FE
:1007D00062005B01CDE901230392CA08C1F38001E5
:1007E000CDE9041201220021CDE906120E21099162
:1007F0000892694600F036F90BB030BD70B50D4671
:10080000044600F08FFC0221204600F0B0F81021D1
:10081000204600F0ACF82549206888423ED12448A3
:1008200040F2012200218562046040F6FF752B46EC
:100830002046FFF7B7FF2B4640F202220821204650
:10084000FFF7B0FF2B4640F2032210212046FFF7AE
:10085000A9FF2B464FF4017218212046FFF7A2FF93
:100860002B4640F2052220212046FFF79BFF2B4616
:1008700040F2062228212046FFF794FF2B4640F243
:10088000072230212046FFF78DFF2B462046BDE88A
:10089000704040F209223821FFF784BF05498842A1
:1008A00003D103482C308562046070BD00640040B1
:1008B000EC0400200068004000B587B000910021E2
:1008C00001910291CDE9031306AB694600F061F88E
:1008D00007B000BD014800F0B3BC00004404002094
:1008E000014800F0ADBC0000E403002001681823BB
:1008F000CAB2103AB2FBF3F2054B6FF30901032AB7
:100900009B5CC36500D9091D8165084670470000DE
:100910002458000810B5014600208B698A6A4FF000
:10092000C07453B1B3F5005F15D072B1012A0CD079
:10093000022A0AD0032A09D104E01AB1012A06D0FA
:10094000022A03D1C96AC90100D5012010BDC96AB4
:10095000A142FAD010BD002AF7D0012AF2D0022A13
:10096000F3D0032AF3D010BD704772B6FEE790F8BB
:100970002020012A07D0022A05D0416A41F48021B3
:10098000416201207047006842690A4342610020C9
:100990007047F0B590F820500468A468012D05D088
:1009A000022D03D0416A41F4802157E014F0406FDA
:1009B00001D1E5004FD5C4F301640125A5401D60B8
:1009C0008D684FF4C0739DB1CE6835434E6845EADB
:1009D000C605066803EB0417F5514FF4C2750768A6
:1009E00005EB04150E697E51097D012905D009E04A
:1009F0000E88CD6845EA4655EBE701684E5946F446
:100A000080764E511179D579567941EA056195790B
:100A10002D0445EA062529434FF4C676056806EB02
:100A20000416A9511178D57841EA05619578527874
:100A30002D0445EA022211434FF4C475026805EB08
:100A400004155151006803EB0411425842F00102B1
:100A500042500020F0BD416A41F400114162012082
:100A6000F0BD000010B590F82020012A07D0022A1E
:100A700005D0416A41F480214162012010BD3B480C
:100A8000D0F8002242F00102C0F80022D0F8002283
:100A900022F47C52C0F80022D0F800224B6A42EACD
:100AA0000322C0F800220A7D02F01F0301229A40AF
:100AB000D0F81C329343C0F81C32CB69B3B9D0F8DC
:100AC0000C329343C0F80C328C894B6864F31F439B
:100AD0004C6900EBC404C4F840320C890B6864F321
:100AE0001F434C6900EBC404C4F84432CB69012BAA
:100AF00016D1D0F80C321343C0F80C320C884B6876
:100B000064F31F434C6900EBC404C4F840320C8901
:100B1000CB6864F31F434C6900EBC404C4F844324F
:100B20008B69002BD0F804320ED01343C0F8043286
:100B30000B69002BD0F8143208D01343C0F81432DC
:100B4000096A012904D008E09343EFE79343F5E7EE
:100B5000D0F81C121143C0F81C12D0F8001221F07A
:100B60000101C0F80012002010BD00000064004028
:100B7000704770B590F82040012C05D0022C03D0AE
:100B8000416A41F4802128E0046809B32469A4077C
:100B900020D04FF4D874056804EB01142D5915F0DA
:100BA0000405956005682D591AD0ED085560056853
:100BB0002C5904F00204D4604FF4DA74056804EB95
:100BC00001142E5906F00F06082E0CD308250DE04F
:100BD000E468DCE7416A41F400114162012070BD24
:100BE0006D0D1560E3E72D5905F00F0515610568DA
:100BF0002D59C5F30725956105682C59240C5461BE
:100C00004FF4DC72046802EB0112A4581C700468F3
:100C1000A458240A5C700468A458240C9C700468CE
:100C2000A258120EDA704FF4DE72046802EB011261
:100C3000A4581C710468A458240A5C710468A45860
:100C4000240C9C710468A258120EDA71006829B154
:100C5000016941F020010161002070BDC16841F0CF
:100C60002001C160F8E72DE9F05F05460068002427
:100C70004669D0F804908768D0F80CB0D0F810A07E
:100C8000D0F81880F10748D0F90714D0012181600D
:100C9000B80703D5284600F072FA0CE0780702D5B1
:100CA0004FF4006407E0380702D54FF4805402E0A7
:100CB000284600F063FAF80516D529684FF48070CD
:100CC0008860B80503D5284600F05BFA0CE078058B
:100CD00002D544F4005407E0380502D544F48044BA
:100CE00002E0284600F04CFAF80316D529684FF4C4
:100CF00080308860B80303D5284600F044FA0CE041
:100D0000780302D544F4004407E0380302D544F4E4
:100D1000803402E0284600F035FA300707D55FEA54
:100D2000CB6004D52968102044F40074C8607007B3
:100D30004FF0080707D55FEA0B7004D52868C76035
:100D4000284600F0A9F9B00706D52868C0688007D2
:100D500002D0284600F0A2F9700607D55FEACA6003
:100D600004D52968102044F480640861B00607D5D2
:100D70005FEA0A7004D528680761284600F0AEF9DA
:100D8000F00606D528680069800702D0284600F0E2
:100D9000A7F9B00308D55FEAC96005D52968102016
:100DA0004860284600F0BCF9F00307D55FEA0970F7
:100DB00004D528684760284600F0E6F9300446D597
:100DC0005FEA497040D5F00504D55FEAC87001D0EC
:100DD00044F00104B00504D55FEA887001D544F001
:100DE0000204700504D55FEA487001D544F004049C
:100DF000300529D518F0700F26D008F07000402873
:100E000015D006DC102809D020280AD0302816D1A9
:100E10000AE050280ED0602811D10EE044F00804FA
:100E20000DE044F010040AE044F0200407E044F030
:100E3000400404E044F0800401E044F48074286835
:100E4000816921F070018161296804204860002CCB
:100E500005D0686A204368622846FFF789FEBDE82E
:100E6000F09F70B5040003D094F8200010B104E0A6
:100E7000012070BD204600F081F82068016841F033
:100E80000101016000F00EFC0546052604E000F0BB
:100E900009FC401B0A2811D820684068C007F6D01A
:100EA0002068016821F00201016000F0FBFB0546AB
:100EB0000BE000F0F7FB401B0A2806D9606A40F4FB
:100EC0000030606284F82060D2E7206840688007C4
:100ED000EFD4207E0128206801683DD021F08001F8
:100EE0000160607E01282068016838D021F040014F
:100EF0000160A07E01282068016833D021F0200124
:100F00000160E07E0128206801682ED041F01001C8
:100F10000160207F01282068016829D021F00801A4
:100F20000160607F01282068016824D021F004015D
:100F30000160D4E902010843D4E9041211430843D3
:100F40006168491E08432168C86100206062012071
:100F500084F82000002070BD41F08001C0E741F01E
:100F60004001C5E741F02001CAE721F01001CFE7B9
:100F700041F00801D4E741F00401D9E7F0B587B0AA
:100F8000044614216846FFF778FA3E4B3E48DFF8E6
:100F9000F0E01968D4F800C03B4A0325022609276F
:100FA00010300024491CF4452AD11960012907D1C9
:100FB000016841F000710160006800F00070059068
:100FC000106840F0080010601068CDE9005600F08D
:100FD0000800CDE9047069462C48CDE9024500F0CF
:100FE00069FA00220521142000F0FAFB142000F019
:100FF000E9FB00220521152000F0F2FB15203AE064
:10100000DFF88CE0F44538D1D0F800C04CF0806CAB
:10101000C0F800C0D0F800C001290CF0806CCDF8F9
:1010200014C0196007D1016841F0007101600068C7
:1010300000F000700590106840F002001060106829
:1010400002AB00F0020005906020CDE9000683E8C5
:10105000B00069460F4800F02DFA0022052140201B
:1010600000F0BEFB402000F0ADFB00220521412036
:1010700000F0B6FB412000F0A5FB07B0F0BD00007A
:10108000006400401800002030380240000C02408C
:1010900000680040000402407047000010B50C4A90
:1010A0000168914202D10B4B1C4605E00A4A91426D
:1010B0000CD1084B2C331C46221D00212033FFF796
:1010C00058FD201DA16ABDE81040084710BD000072
:1010D00000640040EC0400200068004070470000FD
:1010E00010B50C4A0168914202D10B4B1C4605E039
:1010F0000A4A91420CD1084B2C331C46221D012177
:101100002033FFF736FD201DA16ABDE810400847D7
:1011100010BD000000640040EC04002000680040A6
:101120007047000070B5044690F82000012804D0F4
:10113000606A40F40020606218E0022084F8200019
:101140002068016821F00101016000F0ABFA05465A
:101150000EE000BF00F0A6FA401B0A2808D9606A1A
:1011600040F400306062052084F82000012070BD4A
:1011700020684068C007EDD1606270BD704770475D
:10118000704770477047704770472DE9F04104463B
:10119000876D00F087FA064694F83500002502288E
:1011A00006D08020606584F834500120BDE8F081CD
:1011B0002068016821F0160101602068416921F072
:1011C00080014161206C08B9A06C20B120680168E1
:1011D00021F0080101602068016821F0010101602F
:1011E0000CE000F05FFA801B052807D9202060651D
:1011F000032084F8350084F83450D7E7206800686D
:10120000C007EED194F85C103F208840B860012000
:1012100084F8350084F834500020C7E790F8351082
:10122000022903D08021416501207047052180F803
:1012300035100068016821F001010160002070474D
:101240002DE9F84304464FF00009CDF800906348BB
:101250004FF41651A56D0068B0FBF1F72E6894F8B5
:101260005C10082000FA01F131420FD021680A68B1
:1012700052070BD50A6822F004020A6094F85C1049
:101280008840A860606D40F00100606594F85C10D3
:101290004FF0010808FA01F0304208D0216849698E
:1012A000090604D5A860606D40F00200606594F8FE
:1012B0005C1004208840304208D021680968890702
:1012C00004D5A860606D40F00400606594F85C107F
:1012D00010208840304218D021680968090714D5C9
:1012E000A86020680168490304D50068000308D598
:1012F000A16C07E00168C90503D4016821F0080169
:101300000160216C09B12046884794F85C102020C8
:101310008840304231D021680968C9062DD5A860BF
:1013200094F8350005282068016806D0490347D5A0
:10133000006800031DD4616C1CE021F016010160FF
:101340002068416921F080014161206C08B9A06CDE
:1013500020B12068016821F00801016094F85C1058
:101360003F208840A86084F8358084F83490216D4F
:101370001FE0E16B09B120468847606D00282BD043
:10138000606DC00714D0052084F83500206801681E
:1013900021F0010101600098401C0090B84203D880
:1013A00020680068C007F6D184F8358084F834904E
:1013B000E16C002910D001B02046BDE8F043084799
:1013C0000168C905D5D4016821F01001016084F8D5
:1013D000358084F83490CCE7BDE8F88328000020FD
:1013E0002DE9F041044600F05DF906465CB10220AB
:1013F00084F83500002584F834502068016821F015
:10140000010101600DE00120BDE8F08100F04AF922
:10141000801B052805D920206065032084F835004D
:10142000F2E720680068C007F0D122681168204800
:101430000140D4E901031843D4E903363343184388
:1014400063691843A3691843E3691843236A18437F
:101450000843616A042903D1D4E90B1319430843F3
:10146000106020684069666A20F0070130460E432C
:10147000012704280CD1A06A0643E06A40B1204647
:10148000FFF748FA20B14020606584F83570BAE76C
:10149000206846612046FFF729FA94F85C203F2136
:1014A00091408160656584F835700020ACE70000EC
:1014B0003F8010F02DE9F84FDFF8BCA10022012594
:1014C00003264FF00F090AF1040BAAF1040E00BF26
:1014D0000B6805FA02F42340A34270D10F7907F09C
:1014E0000307012F01D0022F16D187684FEA420867
:1014F00006FA08FC27EA0C07D1F80CC00CFA08FC25
:101500004CEA070CC0F808C04768A7430C79C4F33D
:10151000001494403C4344600C79E443A4070AD08F
:10152000C4684FEA420C06FA0CF7BC438F6807FA0E
:101530000CF72743C7600C7904F00304022C12D186
:10154000D40800EB840CDCF820405707FF0E09FAA2
:1015500007F824EA0804D1F8108008FA07F848EAE6
:101560000408CCF8208004684FEA420C06FA0CF715
:10157000BC430F7907F0030707FA0CF7274307600E
:101580004C6814F4403F70D03C4C276847F48047C7
:101590002760246822F0030704F480440094384C48
:1015A00007EB040CDCF8084897074FEA177809FAAC
:1015B00008F7BC43334FB84202D1002724E054E07F
:1015C000314FB84201D101271EE0304FB84201D15E
:1015D000022719E02E4FB84201D1032714E02D4F06
:1015E000B84201D104270FE02B4FB84201D10527A3
:1015F0000AE02A4FB84201D1062705E0284FB84239
:1016000001D1072700E0082707FA08F72743CCF89D
:101610000878DAF800405746D1F804C09C435FEAE6
:10162000CC2C00D51C433C60DBF800405F46D1F871
:1016300004C09C435FEA8C2C00D51C433C60DEF860
:1016400000407746D1F804C09C435FEA8C3C00D54B
:101650001C433C60084F083F3C68D1F804C09C43E1
:101660005FEACC3C00D51C433C60521C102AFFF4BE
:101670002FAFBDE8F88F0000083C0140443802401D
:101680000030014000000240000402400008024017
:10169000000C0240001002400014024000180240FA
:1016A000001C024001488068704700001C000020B8
:1016B0000248816802781144816070471C00002054
:1016C0000B4810B5016841F400710160016841F4F4
:1016D00080610160016841F480710160032000F0C5
:1016E0009FF80F2000F006F800F050F8002010BD21
:1016F000003C024030B50546204887B00024016810
:1017000041F001010160006806A900F001000090AD
:1017100001A800F031F90498B0B100F04DF9400093
:1017200017494FF08042B0FBF1F11648491E0260A4
:1017300040F2E732C0E90324C0E90114846100F0FB
:1017400045FB040003D015E000F036F9E8E70D484A
:1017500000F06AFB04000DD11C2000F033F8102DBE
:1017600007D2002229461C2000F03AF806480560FE
:1017700000E0012407B0204630BD000040380240A0
:1017800040420F00A4040020200000200C4882B03A
:10179000016841F480410160006800F480400090DD
:1017A0000748001F016841F0805101600068002275
:1017B00000F0805000900F21901E02B000F010B891
:1017C00044380240002809DB00F01F02012191404B
:1017D0004009800000F1E020C0F8001170470000CF
:1017E000F0B40E4B1B680C46C3F30223C3F107058C
:1017F000042D00D90425191D072901D2002300E07A
:10180000DB1E012606FA05F1491E214099409E4043
:10181000761E16403143F0BC01F0B1B90CED00E08A
:10182000064900F0070208684FF6FF03184040EA37
:101830000220034A10430860704700000CED00E0EE
:101840000000FA052DE9F0470E46050065D0DFF8E7
:101850001481D8F80000F7B200F00700B04207D2B8
:1018600088F80070D8F8000000F00700B04254D1AA
:1018700028683D4C810712D5400703D5206840F405
:10188000E05020602878000703D5206840F46040CD
:1018900020602068A96820F0F000084320602878C4
:1018A000C0072DD0304968680839012812D00228B5
:1018B00013D0032811D00968890700292DDA21687F
:1018C00021F0030101432160FFF7ECFE814641F264
:1018D000883A0EE009688903EFE709688901ECE7B7
:1018E000FFF7E0FEA0EB0901514502D90320BDE856
:1018F000F0872068696800F00C00B0EB810FEFD131
:10190000D8F80010404601F00701B14207D907702E
:10191000006800F00700B04201D00120E7E7287816
:10192000400705D52068E96820F4E05008432060AE
:101930002878000706D52068296920F4604040EA2D
:10194000C100206000F058F82168084AC1F3031173
:10195000515CC8400649086006480068FFF7CAFEA7
:101960000020C4E7003C0240083802402C58000820
:1019700028000020200000200F2202600C4A13687B
:1019800003F003034360136803F0F00383601368FC
:1019900003F4E053C36012684FF4E05303EAD20249
:1019A00002610448006800F007000860704700000A
:1019B00008380240003C02400448054900680968B4
:1019C000044AC1F38221515CC840704728000020BE
:1019D000083802403C580008044805490068096876
:1019E000044AC1F34231515CC840704728000020CE
:1019F000083802403C580008154810B5006810F03F
:101A00000C02144813D01449042A0FD0082A0ED10E
:101A10000F4C241F2268236802F03F025B0207D5A7
:101A20002068C0F38810A0FB010106E0084610BD45
:101A30002168C1F38811A1FB00010023FEF774FCAB
:101A40002168C1F30141491C4900B0FBF1F010BD10
:101A5000083802400024F40040787D012DE9F84F59
:101A600004006ED02078DFF84C93C007A9F104057C
:101A70004AD009F104000168C1F38101012908D0AD
:101A80000068C0F3810002280AD1D9F800004002A2
:101A900006D52868800337D560680028E1D033E098
:101AA0006068B0F5803F10D0B0F5A02F286810D046
:101AB00020F480302860286820F480202860606846
:101AC000A8B1FFF7EFFD06460DE0286840F480302E
:101AD000F4E740F480202860F7E700BFFFF7E2FD5D
:101AE000801B642873D828688003F7D50CE0FFF7C3
:101AF000D9FD064605E000BFFFF7D4FD801B642832
:101B0000F0D828688003F7D42078DFF8AC8280070B
:101B10004FF0000A3ED5A748001D016811F00C0FD8
:101B200008D00068C0F3810002280BD1D9F800006A
:101B3000400207D42868800716D5E068012800D144
:101B400012E033E1E068B8B10120C8F80000FFF707
:101B5000A9FD064605E000BFFFF7A4FD801B022893
:101B6000C0D828688007F7D52868216920F0F800D8
:101B700040EAC10028600DE0C8F800A0FFF792FD20
:101B8000064604E0FFF78EFD801B02281FD8286858
:101B90008007F7D42078000722D5864F87486169EF
:101BA000703771B101210160FFF77CFD064604E04A
:101BB000FFF778FD801B022809D838688007F7D521
:101BC0000EE0C0F800A0FFF76DFD064605E082E0DC
:101BD000FFF768FD801B02287DD838688007F7D49E
:101BE0002078400768D5DFF8CCB100270BF13C0B1B
:101BF000DBF80000C0000BD4DBF8001041F080518E
:101C0000CBF80010DBF80000012700F080500090B6
:101C10006B4E3068C00510D4306840F4807030607E
:101C2000FFF740FD009005E0FFF73CFD0099401AEA
:101C3000022850D83068C005F6D55E4EA0686C36D4
:101C400001280FD00528306810D020F00100306046
:101C5000306820F004003060A068B8B1FFF722FDC2
:101C600000900FE0306840F00100F4E740F004001D
:101C70003060F7E7FFF716FD0099411A41F288300E
:101C8000814266D830688007F4D50EE0FFF70AFD80
:101C9000009007E0FFF706FD0099411A41F28830F5
:101CA000814256D830688007F4D42FB1DBF8001099
:101CB00021F08051CBF80010A069C8B33D49091D3F
:101CC0000968C1F3810102294AD00228504607D091
:101CD000C8F8600000E03CE0FFF7E4FC04463BE0AD
:101CE0004746C8F86000FFF7DDFC064605E000BF88
:101CF000FFF7D8FC801B02282BD828688001F7D476
:101D0000D4E907010843A16A2E4A490802EB0141C0
:101D1000626A41EA8211084394F82C1040EA01619A
:101D2000C9F8001001203866FFF7BCFC044606E045
:101D30003EE000BFFFF7B6FC001B022809D8286868
:101D40008001F7D534E000BFFFF7ACFC001B022890
:101D500002D90320BDE8F88F28688001F4D427E079
:101D60000128F7D0D9F80000E26900F4800191421F
:101D70001CD1226A00F03F01914217D147F6C07191
:101D8000626A0140B1EB821F10D1A26A4FF0FF33AB
:101D900000F4403103EB5202B1EB024F06D194F84C
:101DA0002C1000F07060B0EB016F01D00120D1E782
:101DB0000020CFE70438024000004742800E47422F
:101DC000007000400000FFFF7047704710B504002E
:101DD00003D094F83D0010B107E0012010BD0020B1
:101DE00084F83C00204600F01EF8022084F83D00F4
:101DF000211D206800F0E0FC012084F8460084F8F2
:101E00003E0084F83F0084F8400084F8410084F8E4
:101E1000420084F8430084F8440084F8450084F8C4
:101E20003D00002010BD704790F83D10012901D001
:101E300001207047022180F83D100168CA6842F015
:101E40000102CA6000681149884214D0B0F1804F85
:101E500011D00F4988420ED00E4988420BD00E494E
:101E6000884208D00D49884205D00D49884202D0E9
:101E70000C49884204D1816801F00701062903D08A
:101E8000016841F00101016000207047000001403D
:101E90000004004000080040000C00400004014025
:101EA000004001400018004070472DE9F041044611
:101EB0000068C66805694FF00007A90713D5B10788
:101EC00011D5F91E01610120207720688069800703
:101ED000204602D0FFF7E8FF04E000F07EF820463D
:101EE00000F07CF82777680716D5700714D52168AD
:101EF0006FF004000861022020772068806910F4E8
:101F0000407F204602D0FFF7CFFF04E000F065F8E5
:101F1000204600F063F82777280715D5300713D53A
:101F200021686FF008000861042020772068C069EC
:101F30008007204602D0FFF7B7FF04E000F04DF81D
:101F4000204600F04BF82777E80616D5F00614D5A2
:101F500021686FF010000861082020772068C069B0
:101F600010F4407F204602D0FFF79EFF04E000F00F
:101F700034F8204600F032F82777E80708D0F00759
:101F800006D021686FF001000861204600F027F8B4
:101F9000280608D5300606D521686FF08000086154
:101FA0002046FFF711FF680608D5700606D52168A0
:101FB0006FF040000861204600F018F8A8060AD526
:101FC000B00608D521686FF0200008612046BDE802
:101FD000F041FFF7FABEBDE8F08170477047006836
:101FE000B0F1804F01D1FFF763BB70477047704776
:101FF00070470000F8B5016804460868CA684B6974
:1020000010F00F0F4FF0000559D003F0010602F455
:102010009077374365D0C10705D0D10503D5616CF2
:1020200041F001016164410705D5D90703D0616C16
:1020300041F002016164810705D5D90703D0616CC5
:1020400041F004016164010707D502F0200131432A
:1020500003D0616C41F008016164616C00293AD0E1
:10206000800604D5900602D5204600F040FC20688A
:102070004069616CC0F38010090700D460B320464A
:1020800000F00EFC20684069400621D5206814301D
:1020900050E8001F21F0400140E80012002AF5D16D
:1020A000E06BA8B16E490165E06BFFF7B7F8002857
:1020B00011D0E06B016D01B0BDE8F0400847830628
:1020C0000FD593060DD52046BDE8F84000F00FBCB3
:1020D0002046FFF78DFFF8BD2046FFF789FF6564B6
:1020E000F8BD266B2023012E7DD1C6067BD5D606F2
:1020F00079D508684868009048694FF002064006A4
:1021000041D5E16B086840680004000CE8D0A28D5E
:102110008242E5D9E085C869B0F5807F2DD020687E
:102120000C3050E8001F21F4807140E80012002AB2
:10213000F5D12068143050E8001F21F0010140E87B
:102140000012002AF5D12068143050E8001F21F059
:10215000400140E80012002AF5D184F8423025639E
:1021600020680C3050E8001F21F0100140E80012F8
:10217000002AF5D1E06BFFF708F86663A08DE18DCA
:10218000401A81B22AE0A08DE18D401A81B2E08D23
:102190000028A5D00029A3D022680C3252E8000FF5
:1021A00020F4907042E80007002FF5D12068143029
:1021B00050E8002F22F0010240E80027002FF5D15F
:1021C00084F84230256320680C3050E8002F22F05C
:1021D000100240E80023002BF5D166632046FFF78C
:1021E00006FFF8BDFFE705062BD5150629D594F89F
:1021F00041002128F5D1A068B0F5805F01D12069A8
:10220000B0B1206A411C2162216800784860E08CEE
:10221000401E0004000CE084E3D12068C16821F076
:102220008001C1602068C16841F04001C160D8E709
:10223000206A0088C0F308004860206A801C206281
:10224000E5E74006CDD55006CBD5CA68204622F03A
:102250004002CA6084F8413000F0EDF8C1E70000A8
:102260009128000870B5040004D094F841000025BE
:1022700010B106E0012070BD84F84050204600F007
:1022800023F8242084F841002068C16821F400511B
:10229000C160204600F08CFB2068016921F4904168
:1022A00001612068416921F02A0141612068C1680B
:1022B00041F40051C1606564202084F8410084F835
:1022C00042006563002070BD2DE9F04F87B00646DF
:1022D00014216846FEF7D1F84D4B316800244D4873
:1022E0000225032207274FF000694FF4806A4FF45C
:1022F000403B99424AD1474914310B6843F01003DF
:102300000B60096801F010010591016841F00201BC
:102310000160016801F002010591016841F00101CD
:1023200001600068CDE9024200F0010005908020C4
:10233000CDE900059046694604973748FFF7BAF89B
:102340002802CDE90005CDE90248694604973348E3
:10235000FFF7B0F8334D3248E5E802094020A5E820
:102360001104304845F81449AC61C5E9074B6C626B
:10237000FFF736F808B1FEF7F8FAB5630022052139
:102380002520AE63FFF72CFA25203BE0264B99422F
:102390003AD1204910310B6843F480230B6009685F
:1023A00001F480210591016841F004010160006899
:1023B000CDE9024200F0040005904FF44060CDE901
:1023C0000005694604971948FFF774F8154D184839
:1023D00060352860C5E90194C5E9034A80156C6140
:1023E000C5E90640C5E908B42846FEF7F9FF08B17B
:1023F000FEF7BBFAF563002205212720AE63FFF745
:10240000EFF92720FFF7DEF907B0BDE8F08F0000F5
:102410000010014030380240000402400000024039
:10242000B8640240E4030020004800400008024075
:102430002860024070477047FEE700000F4810B563
:102440000D4901600421416000214FF4A022816008
:10245000C0E903124FF400124261017641768176A1
:10246000C17601774177FEF7FCFC002803D0BDE878
:102470001040FEF77ABA10BD00640040040300204B
:102480000F4810B50D4901600421416000214FF44F
:10249000A0228160C0E903124FF40012426101766C
:1024A00041768176C17601774177FEF7DAFC002824
:1024B00003D0BDE81040FEF758BA10BD00680040D8
:1024C0002C030020114808B5016841F48001016027
:1024D000016801F480010091016841F4001101607C
:1024E0000068002200F40010009005210C20FFF786
:1024F00077F90C20FFF766F9002205214620FFF747
:102500006FF9BDE808404620FFF75CB9303802405B
:1025100010B58EB01C220B496846FDF77CFF0021E8
:10252000684601F0F4FB084C06491C2220611C316E
:1025300007A8FDF770FF002107A801F0E8FB206065
:102540000EB010BDEC57000804000020114808B57B
:10255000016841F002010160016801F0020100918F
:10256000016841F008010160016801F00801009173
:10257000016841F004010160016801F0040100916B
:10258000016841F001010160006800F00100009065
:1025900008BD0000303802400C4810B50A490160FF
:1025A0004FF4E1314160002181600C22C160C0E93B
:1025B00004128161C161FFF755FE002803D0BDE818
:1025C0001040FEF7D2B910BD0010014054030020A6
:1025D0000D4810B50B4901600C49416000214FF4D2
:1025E00080628160C0E903120C22C0E90521C1614B
:1025F000FFF738FE002803D0BDE81040FEF7B5B95C
:1026000010BD0000004800409C030020A08601008F
:10261000FEE7FEE730B5144B1C68656945F04005E0
:1026200065611B68DC6844F01004DC600F4B1C68BB
:10263000256825F0010525601C682568ED07F7D1A0
:102640001D680B4CAC601C68E0601868016118687C
:1026500042601868016841F48021016018680168CF
:1026600041F00101016030BD9C03002044040020C2
:1026700004480040012001F03EFBFBE710B596B096
:1026800002F016F81C2213496846FDF7C4FE00212B
:10269000684601F03CFB104C0E491C22E0601C31E6
:1026A00007A8FDF7B8FE002107A801F030FB094993
:1026B00060601C2238310EA8FDF7ADFE00210EA887
:1026C00001F025FBA060206801F04BFB02F010F840
:1026D00016B010BD985700080400002010B5502017
:1026E00080F31188BFF34F8FBFF36F8F02F012FAA0
:1026F00018B104494FF080500860002080F3118821
:1027000010BD000004ED00E030B593B03021684604
:10271000FDF7B3FE14210CA8FDF7AFFE1D48002500
:10272000016841F080510160006800F08050119014
:102730001948016841F4804101600068022400F4F6
:102740008040119001200390102004900094069482
:102750000820CDE90750A020CDE9090404200B9002
:102760006846FFF77BF908B172B6FEE70CA90F20A7
:1027700081E831004FF4A0500F904FF4805010903A
:1027800005210CA8FFF75EF8002801D072B6FEE71D
:1027900013B030BD4038024000700040024801686C
:1027A00041F470010160704788ED00E00148FFF7D7
:1027B0007CBB0000A4040020F0B50268294C2A4D1F
:1027C0002A4E2B4F2B4B4FF0804CA04209D0604536
:1027D00007D0A84205D0B04203D0B84201D09842F9
:1027E00004D122F0700E4A6842EA0E02A0421BD0C9
:1027F000604519D0A84217D0B04215D0B84213D0C6
:10280000984211D01C4DA8420ED01C4DA8420BD0AE
:102810001B4DA84208D01B4DA84205D01A4DA84216
:1028200002D01A4DA84203D122F44075CA682A4347
:102830004D6922F080022A4302608A68C2620A68F7
:102840008262A04201D0984201D10969016301214D
:1028500041610169C90703D0016921F001010161EA
:10286000F0BD0000000001400004004000080040EE
:10287000000C0040000401400040014000440140C1
:102880000048014000180040001C004000200040AB
:1028900010B5806B0021C185C184FFF7A9FB10BD75
:1028A00001680C3151E8002F22F4907241E80023B6
:1028B000002BF5D10168143151E8002F22F00102FC
:1028C00041E80023002BF5D1016B012909D10168F2
:1028D0000C3151E8002F22F0100241E80023002BB8
:1028E000F5D1202180F8421000210163704708B51E
:1028F00090F84210222901D0022008BD82684FF4CE
:1029000080539A4201D1016921B1816A9A421BD058
:102910004AB10AE00268816A5268C2F308020A807A
:10292000816A891C08E0026972B10268526802F08B
:102930007F020A70816A491C8162C18D491E0904A7
:10294000090CC18503D01BE002685268F1E70168F9
:10295000CA6822F02002CA600168CA6822F4807244
:10296000CA6001684A6922F001024A61202180F8A8
:10297000421000214163026B012A03D0FFF75AFD88
:10298000002008BD016301680C3151E8002F22F0DE
:10299000100241E80023002BF5D101680A68D20635
:1029A00002D50A6849680091818DFFF720FBE7E7AF
:1029B00070B5044600680169E26821F44051114392
:1029C00001612169A068E269084361691143084314
:1029D0002168CA6849F20C639A430243CA602068BE
:1029E0004169A26921F44071114341613149206874
:1029F000884202D03049884202D1FEF7EDFF01E063
:102A0000FEF7DAFFE2690023192164253226B2F5C8
:102A1000004F626828D0A0FB0101930F9200FDF7E0
:102A200083FC0146B0FBF5F06FF01802504301EB58
:102A3000800006EB0010B0FBF5F000F0F002B1FBF7
:102A4000F5F002EB0012B1FBF5F06FF018035843FC
:102A500001EB800006EB0010B0FBF5F000F00F007A
:102A600021681044886070BDA0FB010192185B4191
:102A7000FDF75AFC0146B0FBF5F00201B1FBF5F0A1
:102A80006FF01803584301EB800006EBC000B0FB69
:102A9000F5F000F0F80002EB4002B1FBF5F058430E
:102AA00001EB800006EBC000B0FBF5F000F0070082
:102AB000D6E7000000100140001401400148FFF774
:102AC00099BA000054030020264818B40068016831
:102AD000890604D501684068009018BC70472249F7
:102AE0000968C906F9D501684068204A0090106855
:102AF00001684FF024030C031D49046824F001040D
:102B0000046016D410684468C4F12404A4B20C8094
:102B100043601068016841F4002101601068016899
:102B200041F001010160122CD7D1124901F11600C8
:102B300015E014686068C0F1240080B2088063600A
:102B40000D498B6A23F400238B6211680A6842F0F6
:102B500001020A601228C0D1064901F13A0018BCEE
:102B600001F042BB9C0300200048004044040020C8
:102B7000440000204405002000600240FEE70907F1
:102B8000090E002804DB00F1E02080F800147047F3
:102B900000F00F0000F1E02080F8141D704700B530
:102BA0002DED048BB0EE409AF0EE609A83B051ECBC
:102BB000190B02F0BFFB41EC180B18EE100A18EECF
:102BC000901A8DED008B002818BF0120084320F0DB
:102BD0000040C0F17F6000F1E040C00F14D019EE5A
:102BE000101A19EE900A8DED009B002918BF0121E3
:102BF000084320F00040C0F17F6000F1E040C00FCA
:102C000004BF0120FDF768FCB0EE480A03B0F0EE07
:102C1000680ABDEC048B00BDD0ED000AF4EEC00ADA
:102C2000F1EE10FA01DD80ED000AD0ED000AB1EE00
:102C3000400AF4EEC00AF1EE10FA01D280ED000A6B
:102C40007047000070B504462DED0E8B00259FEDFA
:102C500046DB9FED47CB9FED48AB9FED49EB00BFB7
:102C600004EBC50696F9330306F54C7602F04CFAF0
:102C700041EC190B96F90200D4EDCA0A00EE100AD5
:102C8000B8EEC00A20EE200A10EE100A02F008FD8D
:102C900053EC1D2B02F050FA41EC180BD4F824032E
:102CA00002F0FEFC53EC182B02F02EF841EC180B4E
:102CB000B0EE4C0AF0EE6C0AFFF771FFB0EE40BACE
:102CC000F0EE60BA96F9010002F01EFA53EC1B2BED
:102CD00002F032FA53EC1A2B02F02EFA53EC182BB6
:102CE00002F02AFA41EC180B96F90000D4EDCA0A5A
:102CF00000EE100AB8EEC00A20EE800A10EE100AAC
:102D000002F0CEFC53EC1E2B02F016FA41EC1B0B2A
:102D1000D4F8200302F0C4FC53EC1B2B01F0F4FFA9
:102D200041EC1B0BB0EE4C0AF0EE6C0AFFF737FFDC
:102D300053EC1A2B51EC100B02F0FEF953EC1B2B49
:102D400002F0FAF953EC182B01F0DEFF53EC192BCB
:102D500002F082F801F0A6FF6D1C7060042DFFF6F2
:102D60007FAFBDEC0E8B70BD986E1283C0CAD13F91
:102D70000000000000000040000000000000E03FF4
:102D80000AD7A3703D0AC73F0181002101808171EC
:102D90004180818041818181C18101614161816185
:102DA00080F82410704700002DE9F047FB4DDFF854
:102DB000F083DFF8F09316462DED028BB0EE408ADB
:102DC000044600F1280791B301296FD16088E081A2
:102DD000A189411A216111F5805F02DAA269521CB2
:102DE000A261B1F5805FA16901DD491EA16100EB1F
:102DF00041316161A081B0EE480A01F0E1F900EED5
:102E0000100A04F17800F8EEC00A94ED050AB8EE55
:102E1000C00AFDF712FCBDEEC00A10EE100A00B2A7
:102E2000A0832189A1F201210B293FD200E007E014
:102E3000DFE801F0FAF9F8F7F6F5F4F3F2F1F00053
:102E400086B1012E78D0022A30D12089A0F201204B
:102E50000B282BD2DFE800F0F3F2F1F0EFEEEDEC0F
:102E6000EBEAE9002089A0F201200B281ED2DFE85E
:102E700000F0061E354C6466686A6C6E7000288827
:102E8000F0EE480A40BA6081B4F9000000EE100A82
:102E90003846B8EEC00AFDF785FBBDEEC00AB4F9AE
:102EA0000A1010EE100A01FA80F015E1C8E06888F7
:102EB000F0EE480A40BA6081B4F9000000EE100A52
:102EC0003846B8EEC00AFDF76DFBBDEEC00AB4F996
:102ED0000A1010EE100A01FA80F00FE1A888F0EE57
:102EE000480A40BA6081B4F9000000EE100A384682
:102EF000B8EEC00AFDF756FBBDEEC00AB4F90A10E1
:102F000010EE100A01FA80F00AE1E888F0EE480AB3
:102F100040BA6081B4F9000000EE100A3846B8EEFD
:102F2000C00AFDF73FFBBDEEC00AB4F90A1010EE6F
:102F3000100A01FA80F005E10DE045469FE745469D
:102F4000B5E74546CAE74546DFE74D4697E74D46B4
:102F5000ADE74D46C2E72089A0F201200B286FD2D1
:102F6000DFE800F006121E2A364C6F7B87939F0025
:102F7000B4F90000F0EE480A00EE100A3846B8EE48
:102F8000C00AFDF75AFBA3E0B4F90000F0EE480ACE
:102F900000EE100A3846B8EEC00AFDF74EFBA9E075
:102FA000B4F90000F0EE480A00EE100A3846B8EE18
:102FB000C00AFDF742FBAFE0B4F90000F0EE480AAA
:102FC00000EE100A3846B8EEC00AFDF736FBB5E051
:102FD000B4F90000F0EE480A00EE100A3846B8EEE8
:102FE000C00AFDF72AFBBDEEC00A10EE100A608190
:102FF000010A88F80010A17A88F80110B4F90000DD
:10300000F0EE480A00EE100A3846B8EEC00AFDF7A6
:1030100014FBBBE0E9E3A0E357E30EE3C5E27CE287
:1030200033E2EDE1A7E161E118E105E1F2E0DFE083
:10303000CCE0B9E09FE088E075E062E04FE03CE082
:103040003EE1B4F90000F0EE480A00EE100A3846FE
:10305000B8EEC00AFDF7F1FAB1E0B4F90000F0EE05
:10306000480A00EE100A3846B8EEC00AFDF7E5FA45
:10307000B7E0B4F90000F0EE480A00EE100A384656
:10308000B8EEC00AFDF7D9FABDE0B4F90000F0EEE1
:10309000480A00EE100A3846B8EEC00AFDF7CDFA2D
:1030A000C3E0B4F90000F0EE480A00EE100A38461A
:1030B000B8EEC00AFDF7C1FAC9E0B4F90000F0EEBD
:1030C000480A00EE100A3846B8EEC00AFDF7F9FAD1
:1030D000BDEEC00A10EE100A608180B2ECE0B4F9D7
:1030E0000000F0EE480A00EE100A3846B8EEC00ABA
:1030F000FDF7E7FABDEEC00A10EE100A608180B25B
:1031000022E1B4F90000F0EE480A00EE100A384659
:10311000B8EEC00AFDF7D5FABDEEC00A10EE100AEF
:10312000608180B255E1B4F90000F0EE480A00EE8B
:10313000100A3846B8EEC00AFDF7C3FABDEEC00A61
:1031400010EE100A608180B288E1B4F90000F0EE60
:10315000480A00EE100A3846B8EEC00AFDF7B1FA88
:10316000BDEEC00A10EE100A6081010A88F8001056
:10317000A17A88F80110B4F90000F0EE480A00EED8
:10318000100A3846B8EEC00AFDF79BFABDEEC00A39
:1031900010EE100A608180B2EEE1000034000020E1
:1031A0002C0000203C000020B4F90000F0EE480A9A
:1031B00000EE100A3846B8EEC00AFDF782FABDEEFE
:1031C000C00A10EE100A608180B21DE2B4F900005E
:1031D000F0EE480A00EE100A3846B8EEC00AFDF7D5
:1031E00070FABDEEC00A10EE100A608180B253E2A0
:1031F000B4F90000F0EE480A00EE100A3846B8EEC6
:10320000C00AFDF75EFABDEEC00A10EE100A60813A
:1032100080B289E2B4F90000F0EE480A00EE100A2C
:103220003846B8EEC00AFDF74CFABDEEC00A10EE03
:10323000100A608180B2BFE2B4F90000F0EE480AE3
:1032400000EE100A3846B8EEC00AFDF73AFABDEEB5
:10325000C00A10EE100A608180B2F5E2012E03D0A0
:1032600086B1022E30D026E000EE100AB4F900003C
:10327000F8EEC00A00EE100A3846B8EEC00AFDF7B4
:10328000DCF92EE0298800EE100A49BA6181B4F910
:103290000000F8EEC00A00EE100A3846B8EEC00A88
:1032A000FDF780F9BDEEC00AB4F90A1010EE100A5D
:1032B00001FA80F060816089000A2870A07A687045
:1032C000BDEC028BBDE8F08700EE100AB4F90000F7
:1032D000F8EEC00A00EE100A3846B8EEC00AFDF754
:1032E000F0F9BDEEC00A10EE100AE3E7012E03D09C
:1032F00086B1022E2DD026E000EE100AB4F90000AF
:10330000F8EEC00A00EE100A3846B8EEC00AFDF723
:1033100094F92BE0698800EE100A49BA6181B4F98A
:103320000000F8EEC00A00EE100A3846B8EEC00AF7
:10333000FDF738F9BDEEC00AB4F90A1010EE100A14
:1033400001FA80F060816089000AA870A07AE870B4
:10335000B6E700EE100AB4F90000F8EEC00A00EE7D
:10336000100A3846B8EEC00AFDF7ABF9BDEEC00A48
:1033700010EE100AE6E7012E03D086B1022E2DD002
:1033800026E000EE100AB4F90000F8EEC00A00EEE4
:10339000100A3846B8EEC00AFDF74FF92BE0A988AD
:1033A00000EE100A49BA6181B4F90000F8EEC00AD3
:1033B00000EE100A3846B8EEC00AFDF7F3F8BDEE8D
:1033C000C00AB4F90A1010EE100A01FA80F0608108
:1033D0006089000A2871A07A687171E700EE100A0E
:1033E000B4F90000F8EEC00A00EE100A3846B8EE54
:1033F000C00AFDF766F9BDEEC00A10EE100AE6E756
:10340000012E03D086B1022E2DD026E000EE100A48
:10341000B4F90000F8EEC00A00EE100A3846B8EE23
:10342000C00AFDF70AF92BE0E98800EE100A49BA54
:103430006181B4F90000F8EEC00A00EE100A3846C7
:10344000B8EEC00AFDF7AEF8BDEEC00AB4F90A1036
:1034500010EE100A01FA80F060816089000AA871FC
:10346000A07AE8712CE700EE100AB4F90000F8EE3B
:10347000C00A00EE100A3846B8EEC00AFDF721F97E
:10348000BDEEC00A10EE100AE6E7012E03D086B1A9
:10349000022E30D027E000EE100AB4F90000F8EE5A
:1034A000C00A00EE100A3846B8EEC00AFDF7C5F8AB
:1034B0002EE0B8F8001000EE100A49BA6181B4F9A4
:1034C0000000F8EEC00A00EE100A3846B8EEC00A56
:1034D000FDF768F8BDEEC00AB4F90A1010EE100A44
:1034E00001FA80F060816089010A88F80010A17AF1
:1034F00088F80110E4E600EE100AB4F90000F8EED6
:10350000C00A00EE100A3846B8EEC00AFDF7D9F836
:10351000BDEEC00A10EE100AE4E7012E03D086B11A
:10352000022E30D027E000EE100AB4F90000F8EEC9
:10353000C00A00EE100A3846B8EEC00AFDF77DF862
:103540002EE0B8F8021000EE100A49BA6181B4F911
:103550000000F8EEC00A00EE100A3846B8EEC00AC5
:10356000FDF720F8BDEEC00AB4F90A1010EE100AFB
:1035700001FA80F060816089010A88F80210A17A5E
:1035800088F803109CE600EE100AB4F90000F8EE8B
:10359000C00A00EE100A3846B8EEC00AFDF791F8EE
:1035A000BDEEC00A10EE100AE4E7012E03D086B18A
:1035B000022E30D027E000EE100AB4F90000F8EE39
:1035C000C00A00EE100A3846B8EEC00AFDF735F81A
:1035D0002EE0B8F8041000EE100A49BA6181B4F97F
:1035E0000000F8EEC00A00EE100A3846B8EEC00A35
:1035F000FCF7D8FFBDEEC00AB4F90A1010EE100AAD
:1036000001FA80F060816089010A88F80410A17ACB
:1036100088F8051054E600EE100AB4F90000F8EE40
:10362000C00A00EE100A3846B8EEC00AFDF749F8A5
:10363000BDEEC00A10EE100AE4E7012E03D086B1F9
:10364000022E30D027E000EE100AB4F90000F8EEA8
:10365000C00A00EE100A3846B8EEC00AFCF7EDFFCB
:103660002EE0B8F8061000EE100A49BA6181B4F9EC
:103670000000F8EEC00A00EE100A3846B8EEC00AA4
:10368000FCF790FFBDEEC00AB4F90A1010EE100A64
:1036900001FA80F060816089010A88F80610A17A39
:1036A00088F807100CE600EE100AB4F90000F8EEF6
:1036B000C00A00EE100A3846B8EEC00AFDF701F85D
:1036C000BDEEC00A10EE100AE4E7012E03D086B169
:1036D000022E30D027E000EE100AB4F90000F8EE18
:1036E000C00A00EE100A3846B8EEC00AFCF7A5FF83
:1036F0002EE0B9F8001000EE100A49BA6181B4F961
:103700000000F8EEC00A00EE100A3846B8EEC00A13
:10371000FCF748FFBDEEC00AB4F90A1010EE100A1B
:1037200001FA80F060816089010A89F80010A17AAD
:1037300089F80110C4E500EE100AB4F90000F8EEB3
:10374000C00A00EE100A3846B8EEC00AFCF7B9FF0E
:10375000BDEEC00A10EE100AE4E7012E03D086B1D8
:10376000022E30D027E000EE100AB4F90000F8EE87
:10377000C00A00EE100A3846B8EEC00AFCF75DFF3A
:103780002EE0B9F8021000EE100A49BA6181B4F9CE
:103790000000F8EEC00A00EE100A3846B8EEC00A83
:1037A000FCF700FFBDEEC00AB4F90A1010EE100AD3
:1037B00001FA80F060816089010A89F80210A17A1B
:1037C00089F803107CE500EE100AB4F90000F8EE69
:1037D000C00A00EE100A3846B8EEC00AFCF771FFC6
:1037E000BDEEC00A10EE100AE4E7012E03D086B148
:1037F000022E30D027E000EE100AB4F90000F8EEF7
:10380000C00A00EE100A3846B8EEC00AFCF715FFF1
:103810002EE0B9F8041000EE100A49BA6181B4F93B
:103820000000F8EEC00A00EE100A3846B8EEC00AF2
:10383000FCF7B8FEBDEEC00AB4F90A1010EE100A8B
:1038400001FA80F060816089010A89F80410A17A88
:1038500089F8051034E500EE100AB4F90000F8EE1E
:10386000C00A00EE100A3846B8EEC00AFCF729FF7D
:10387000BDEEC00A10EE100AE4E7000030B5414A80
:10388000414B424C0B281ED2DFE800F01D060D1EF6
:103890002F3E47581D656E00888B40BA5080C88BFC
:1038A00040BA108029E0888B40BAA2F89201C88BF8
:1038B00040BAA2F89001088C40BAA2F8940191F89D
:1038C000220082F8960130BD888B40BAA2F85A02D5
:1038D000C88B40BAA2F85802088C40BAA2F85C0221
:1038E00091F8220082F85E0230BD888B40BAA2F8BF
:1038F000CA00C88B40BA22F8C80F088C40BA908022
:1039000091F82200907130BD888B40BAA3F8CA00AC
:10391000C88B40BA23F8C80F16E0888B40BAA3F8CA
:103920009201C88B40BAA3F89001088C40BAA3F862
:10393000940191F8220083F8960130BD888B40BA3B
:103940005880C88B40BA1880088C40BA988091F88B
:103950002200987130BD888B40BAA4F8CA00C88B89
:1039600040BA24F8C80F05E0888B40BA6080C88B45
:1039700040BA2080088C40BAA08091F82200A07143
:1039800030BD0000A8090020A40500200008002088
:103990000168A1F201210A2922D2DFE801F005081D
:1039A0000B0E111417211A1D0146012016E00146C5
:1039B000022013E00146032010E0014604200DE040
:1039C000014605200AE00146062007E001460720DF
:1039D00004E00146092001E001460A20FFF74EBF3E
:1039E00070470000034800F0F5F8022000F083F96A
:1039F000F8E70000A809002010B59FED270A9FED09
:103A0000271AF0EE080A6FF09F04A02801DDA03805
:103A100002E0A0420FDAA03001EE900AF8EEE11ABF
:103A200081EE802AD3EDCB1A62EE211A61EEA01A44
:103A3000C3EDC81A01E083EDC81AA02901DDA03941
:103A400002E0A1420FDAA03101EE901AF8EEE11A7D
:103A500081EE802AD3EDCB1A62EE211A61EEA00A24
:103A6000C3EDC90A01E083EDC91AA02A01DDA03A1D
:103A700002E0A2420DDAA03200EE902AF8EEE00A4F
:103A800080EE801A93EDCB0A21EE000A83EDCA0A7C
:103A900010BD83EDCA1A10BD0000FA4300000000FB
:103AA00010B504462DED048B40F20121FFF76CF9AF
:103AB0004FF4017104F1C800FFF766F940F20321E9
:103AC00004F51670FFF760F940F2022104F5C870A2
:103AD000FFF75AF99FED3B8ADFED3B8A9FED3B9A5A
:103AE000B3EE043AF0EE482AB0EE682AF1EE041A7A
:103AF000B2EE041AF0EE490AB3EE040A04F128000B
:103B0000FCF72EFDB3EE043AF0EE482AB0EE682A38
:103B1000F1EE041AB2EE041AF0EE490AB3EE040A0A
:103B200004F1F000FCF71CFDB3EE043AF0EE482A75
:103B3000B0EE682AF1EE041AB2EE041AF0EE490A69
:103B4000B3EE040A04F5DC70FCF70AFDB3EE043AA8
:103B5000F0EE482AB0EE682AF1EE041AB2EE041A2A
:103B6000F0EE490AB3EE040A04F52070FCF7F8FC05
:103B7000012084F8300384F8310384F83203811E75
:103B800084F8331384F8381384F8391384F83A032B
:103B900084F83B0384F8401384F8410384F842130B
:103BA00084F8430384F8480384F8491384F84A13DB
:103BB0009FED070A84F84B1384EDCB0ABDEC048B10
:103BC00010BD000000007A4600401C468FC2F53C44
:103BD0000000FA4310B50446334823460068818844
:103BE000B0F90820494209B2B0F90600FFF704FF16
:103BF0002046FFF727F894EDCF0A0222BDEEC00A57
:103C000010EE100A00B2A08394EDD10ABDEEC00AF6
:103C100010EE101AA4F8E41094EDD30ABDEEC00A19
:103C200010EE101AA4F8741294EDCD0ABDEEC00A7D
:103C300010EE101A00EE100AA4F8AC1194F824103B
:103C4000B8EEC00A2046FFF7AFF8B4F9E40094F8E4
:103C5000EC1000EE100A022204F1C800B8EEC00A0F
:103C6000FFF7A2F8B4F9AC0194F8B41100EE100A11
:103C7000022204F5C870B8EEC00AFFF795F8B4F94F
:103C8000740294F87C1200EE100A022204F51670F9
:103C9000B8EEC00AFFF788F80823BDE81040034AD1
:103CA00099010348FCF708BE000000203400002002
:103CB000040300200048704744050020FDF700FD84
:103CC000FEF722FDFEF742FCFEF7FCFBFEF7B6FB1B
:103CD000FEF7D6FBFEF760FCFEF77AFC00F0E0FB97
:103CE000FEF716FC00F00EF8FEE7014600208429DE
:103CF00000D0C81C704710B500B9012000F050FD7D
:103D0000002010BD10B500F0C7FD002010BD7FB52C
:103D10000D4604464169B0F9080081B1A16971B14D
:103D2000FFF7E3FFD4E905128DE80700D4E900109E
:103D30002B46226900F0C3FE039004B070BDFFF76C
:103D4000D4FF03A9CDE90001208A2B4682B2D4E931
:103D5000001000F087FE012801D00020EDE7039855
:103D6000EBE710B500F042FD002010BD2DE9F04159
:103D7000184C0F460546E6682068001D00F048FC18
:103D800038B9206890F82C100120884021698143BF
:103D90002161681C07D137B12168BDE8F0410E48A8
:103DA000091D00F079BC20683544B54245602168A2
:103DB00005D2A06BBDE8F041091D00F055BC606B59
:103DC000091D00F051FCA06A854200D2A562BDE841
:103DD000F081000048000020D40D00202DE9F041C2
:103DE000054600F065FC2E4CA068401CA0602068D1
:103DF0002C4F10B1606940B32DE02560A068012808
:103E000029D1002606EB860007EB800000F01EFC9F
:103E1000761C072EF6D323488C3000F017FC21487F
:103E2000A03000F013FC1F48B43000F00FFC1D4818
:103E3000C83000F00BFC1B48DC3000F007FC1948D0
:103E40008C3060631430A06305E02068E96AC06AC2
:103E5000884200D82560606A401C6062E96A0120DF
:103E6000226988401043206101EB810007EB80004C
:103E7000291D00F011FC00F03BFC606900280CD00B
:103E80002068E96AC06A884207D207494FF080502B
:103E90000860BFF34F8FBFF36F8FBDE8F081000064
:103EA00048000020F80C002004ED00E010B50446A6
:103EB00090F8510058B101280CD002280FD05020A2
:103EC00080F31188BFF34F8FBFF36F8FFEE7206B36
:103ED00000F022FC2046BDE8104000F01DBC10BDE3
:103EE00010484FF47051420706D0C01D0D4920F014
:103EF0000700411AC1F570510B4A00230144C2E981
:103F000000030839183A21F0070111604B600B607B
:103F10000B1AC0E9001393604FF0004053605061EA
:103F200070470000E80D00209C000020144E154C46
:103F3000A6F1C8074FF08058DFF84C9012E000BFA0
:103F400000F0B6FBF068C568281D00F061FBA068B2
:103F5000401EA0606068401E606000F0C9FB2846FB
:103F6000FFF7A4FF60680028EAD138680128F9D972
:103F7000C9F80080BFF34F8FBFF36F8FF2E70000E7
:103F8000C00D00204800002004ED00E02DE9F047BE
:103F90009A46DDE9098481466FF00303206B03EB49
:103FA00082021044089E20F00707780707D05020AF
:103FB00080F31188BFF34F8FBFF36F8FFEE70025AB
:103FC00061B1002023180A5C83F834200A5C12B126
:103FD000401C1028F6D384F8435001E084F8345094
:103FE000072E00D30626E662C4E91165201D00F005
:103FF00038FB04F1180000F034FB2461C6F107001F
:104000006462A061E56484F85050524649463846DF
:1040100000F0C0F82060B8F1000F01D0C8F80040EF
:10402000BDE8F08730B5114900E011460A688242C8
:10403000FBD34B685C18844203D140681844486045
:10404000084643681C18944209D1084C183C24685F
:10405000A24209D052681A4442600A68126802609B
:10406000814200D0086030BD0460F9E79C00002068
:104070000648416B096829B1416BC968C96849683C
:10408000816270474FF0FF31FAE7000048000020DE
:1040900008484068401C4FF0500080F3118804D05D
:1040A000BFF34F8FBFF36F8FFEE7BFF34F8FBFF3A9
:1040B0006F8FFEE7A40000202DE9F04105460027A0
:1040C00000F020FC324E306808B9FFF709FF706934
:1040D00005424ED1C5B3083568070ED005F007007C
:1040E000C0F108000544680707D0502080F311880C
:1040F000BFF34F8FBFF36F8FFEE72DB3706885421C
:1041000037D82348183001460C6801E020460C4699
:104110006168A94202D221680029F7D131688C4236
:1041200027D007682168016060680837411B1029A3
:104130000FD96019420708D0502080F31188BFF3CF
:104140004F8FBFF36F8FFEE713E041606560FFF7AD
:1041500069FF61687068401A7060B268904200D26E
:10416000B060706901430020C4E90001F068401CA0
:10417000F06000F035FD780707D0502080F31188FB
:10418000BFF34F8FBFF36F8FFEE73846BDE8F08176
:104190008400002010B5031F4FF080741C601B1FAB
:1041A00021F001011960191F044B0B6014390A60DA
:1041B000091F6FF0020244380A6010BD91400008E8
:1041C000DFED040A20EE200ABDEEC00A10EE100A50
:1041D000704700000000004602492422A1F124009B
:1041E000FEF718BA7E050020F0B5002855D000294A
:1041F00053D00278437842EA0322C2F30A020A80CB
:1042000043788478DB0843EA4413C3F30A034B8002
:104210008478C578A40944EA8504057944EA8524AC
:10422000C4F30A048C80057946796D0845EAC61501
:10423000C5F30A05CD804679C6F301168E7246791C
:10424000B609CE728679C77946EA07268E81067A44
:10425000477A46EA0726CE81867AC77A46EA072653
:104260000E82067B8E74467BCE74867BC77B46EAC5
:1042700007268E82067C407CA2F580620A80A3F528
:1042800080634B80A4F5806446EA00208C80A5F50D
:104290008065CD80A0F580600881F0BD10B5044632
:1042A0002DED068B40F20521C830FEF76DFD40F282
:1042B000062104F5C870FEF767FD40F2072120468D
:1042C000FEF762FDDFED338A9FED339A9FED338A6F
:1042D000DFED339AB3EE043AF0EE682AB0EE492AE5
:1042E000F0EE481AB2EE041AF0EE690AB1EE040AD2
:1042F00004F12800FCF734F9B3EE043AF0EE682A32
:104300009FED282AF0EE481AB1EE081AF0EE480A9E
:10431000B6EE000A04F17800FCF722F99FED22AA1C
:10432000B3EE043AF0EE682AB0EE492AF0EE481AED
:10433000B0EE4A1AF0EE690AB2EE040A04F1F00097
:10434000FCF70EF9B3EE043AF0EE682AB0EE492A13
:10435000F0EE481AB0EE4A1AF0EE690AB2EE040A1C
:1043600004F5DC70FCF7FCF8012084F8240084EDEF
:10437000088A002084F8EC00A4F8E40084F8B40172
:10438000A4F8AC0184F85902032084F85802BDEC6B
:10439000068B10BD00007A4600401C46000000005D
:1043A0000AD7233C00007A4400000C4210B50446B2
:1043B000334801210068827A012A09D14FF6184258
:1043C000A4F8E4204FF47A72A4F8AC2184F85912CE
:1043D000827A022A09D14EF67842A4F8E42041F20A
:1043E0008832A4F8AC2184F85912817A032904D0C8
:1043F00094F85912012908D017E00020A4F8E4002D
:10440000A4F8AC0184F859020FE0C17A94F858225C
:1044100091420AD094ED080AF1EE020A30EE200A29
:1044200084ED080AC07A84F8580294ED080A94F8DA
:10443000241001222046FEF7B7FCB4F9E40094F8FA
:10444000EC1000EE100A012204F1C800B8EEC00A18
:10445000FEF7AAFCB4F9AC0194F8B41100EE100A0E
:10446000012204F5C870B8EEC00AFEF79DFCBDE855
:1044700010400823034A40F2FF110348FCF71CBA1E
:10448000000000202C000020040300200348FFF758
:104490008DFF0220FFF72FFCF8E70000A4050020A5
:1044A00010B50C48FFF7FAFE0B4800F021F80B4856
:1044B000FFF7F6FA0A490B48FCF7A0F908490A4841
:1044C000FCF79CF9FFF788FEFFF7F4FB074908604B
:1044D00010BD0000A405002000080020A80900204D
:1044E00091390008040300202C0300200000002064
:1044F00010B504462DED048B40F20921C830FEF7BB
:1045000043FC40F20A212046FEF73EFC9FED318A33
:10451000DFED318A9FED319A84ED668A84ED698AF8
:10452000B3EE043AF0EE682AB0EE492AF0EE481AEB
:10453000B2EE041AF0EE480AB2EE040A04F1F000FA
:10454000FCF70EF8B3EE043AF0EE682A9FED242A49
:10455000F0EE481AB0EE081AF0EE480AB1EE040A7E
:1045600004F5A070FBF7FCFFB3EE043AF0EE682A06
:10457000B0EE492AF0EE481AB0EE481AF0EE480ABA
:10458000B0EE480A04F12800FBF7EAFFB3EE043A64
:10459000F0EE682AB0EE492AF0EE481AB0EE481A5A
:1045A000F0EE480AB0EE480A04F17800FBF7D8FFB5
:1045B000012084F8EC0094ED660A002084ED3A0AAC
:1045C00084F8240094ED690A84ED080ABDEC048B9C
:1045D00010BD00000000000000007A4600401C46AC
:1045E00000007A440823034A40F2FF210248FCF706
:1045F00063B900003C000020040300200348FFF7DB
:10460000F1FF0220FFF777FBF8E700000008002029
:10461000D0E9013201699A60D0E901235A604A6801
:10462000824201D182684A60002202610868401E0D
:104630000860086870470000034B036003F15400F2
:104640000860802010607047B000002000F1080171
:104650004FF0FF32C0E90112C16001610021016029
:10466000704700210161704730B50B685A1C02D0B9
:1046700000F1080202E0026904E02246546825685D
:104680009D42FAD953684B6099608A605160086115
:104690000168491C016030BD42684A6093688B60C4
:1046A00093685960916008610168491C0160704716
:1046B000502080F31188BFF34F8FBFF36F8F0A49EB
:1046C0004868401C486001280CD10848006810F078
:1046D000FF0F07D0502080F31188BFF34F8FBFF337
:1046E0006F8FFEE770470000A400002004ED00E09B
:1046F0000849486828B1401E486001D180F31188FC
:104700007047502080F31188BFF34F8FBFF36F8F36
:10471000FEE70000A400002070B500282AD0164D46
:10472000A0F1080460686969084207D1502080F34D
:104730001188BFF34F8FBFF36F8FFEE722683AB146
:10474000502080F31188BFF34F8FBFF36F8FFEE7C8
:104750008843606000F0D6F8606869680844686063
:104760002046FFF75FFC2869401C2861BDE87040C7
:1047700000F036BA70BD0000840000204FF0E02049
:1047800000210161816105494FF47A720968B1FB2A
:10479000F2F1491E416107210161704728000020A4
:1047A00010B5020014D00F48006B38B1502080F3D0
:1047B0001188BFF34F8FBFF36F8FFEE700F0A2F8B1
:1047C00000211046FFF7D2FA00F00AFA002807D1BC
:1047D00005494FF080500860BFF34F8FBFF36F8FD4
:1047E00010BD00004800002004ED00E070B5054653
:1047F000FFF75EFF254C05B92568281DFFF708FF68
:1048000058B9E86A224A00EB800152F8211021B918
:1048100001218140206988432061A86A18B105F10F
:104820001800FFF7F5FE606A401C60622068854250
:1048300008D11748291DC830FFF72EFF6068401CBB
:10484000606007E0A068401EA0602846FFF72EFBCE
:10485000FFF70EFCFFF74CFF6069002814D02068BA
:10486000854211D1206B38B1502080F31188BFF3FD
:104870004F8FBFF36F8FFEE706494FF080500860FF
:10488000BFF34F8FBFF36F8F70BD00004800002053
:10489000F80C002004ED00E010B586B0002403946D
:1048A00005AA04A903A80494FFF7C6FEDDE90301E5
:1048B0000094CDE9011000230EA11048059A00F0E4
:1048C000FEF80F490028C86211D0502080F31188EB
:1048D000BFF34F8FBFF36F8F4FF0FF30886201201F
:1048E0004861CC6006B0BDE8104000F041B806B0A9
:1048F00010BD000049444C45000000002D3F000859
:10490000480000200248016B491C01637047000009
:10491000480000201448016B11B10121C1617047AA
:104920000021C1610169B1FA81F1C1F11F0101EBFF
:1049300081020E4951F822306BB101EB820101F185
:1049400008034A6852684A609A4201D152684A6034
:10495000D16801607047502080F31188BFF34F8FFA
:10496000BFF36F8FFEE7000048000020F80C002026
:104970001CB537480168374A914207D1502080F36F
:104980001188BFF34F8FBFF36F8FFEE70068314987
:10499000491E884207D1502080F31188BFF34F8F02
:1049A000BFF36F8FFEE72C4908780190FF20087055
:1049B00008788DF800009DF800009DF8002000F0B8
:1049C000F000904207D0502080F31188BFF34F8F42
:1049D000BFF36F8FFEE79DF80000204C00F0500001
:1049E00020700720A06005E09DF8002052008DF89F
:1049F0000020401E9DF800201206F5D4A060032878
:104A000007D0502080F31188BFF34F8FBFF36F8F13
:104A1000FEE74FF44070A060019808700C48203009
:104A2000016841F470010160016841F0704101606A
:104A3000FFF7A4FE00206060FBF71AFC084801683D
:104A400041F040410160FBF7FFFB00201CBD00006E
:104A500000ED00E071C20F4100E400E0A40000207E
:104A600034EF00E02DE9FF5F8346DDE90E879946CC
:104A700016468A469000FFF71FFB05001CD0542005
:104A8000FFF71AFB040014D00020256384F85100BE
:104A9000CDE90240CDE900874B46324651465846A3
:104AA000FFF774FA2046FFF799F9012004B0BDE83A
:104AB000F09F2846FFF730FE4FF0FF30F6E7F0B5E5
:104AC00085B0DDE90B640A9DA6B1DCB154270097DF
:104AD0002663022684F85160002604AFCDE9024621
:104AE000CDE90057FFF752FA2046FFF777F904980F
:104AF00005B0F0BD502080F31188BFF34F8FBFF396
:104B00006F8FFEE7502080F31188BFF34F8FBFF304
:104B10006F8FFEE72DE9F0412F4C0026206B28B166
:104B2000A069401CA0613046BDE8F081E5686D1CBD
:104B3000E56013D1606B006838B1502080F31188B4
:104B4000BFF34F8FBFF36F8FFEE7606BA16B6163A5
:104B5000A063206A401C2062FFF78AFAA06ADFF88F
:104B60007C80854209D3606B0068A0B1606BC0682F
:104B7000C7687868854211D2A0622068C06A00EBDD
:104B8000800158F82100012800D90126E069002899
:104B9000C9D00126C7E74FF0FF30EDE7381DFFF71A
:104BA00037FDB86A18B107F11800FFF731FDF96A4F
:104BB0000120226988401043206101EB810108EB4C
:104BC0008100391DFFF768FDF86A2168C96A8842CB
:104BD000C9D30126C7E7000048000020F80C0020D8
:104BE0002DE9F0472C4D00242746286B38B1FFF7FC
:104BF0005FFD286B401E2863286B40B146E05020C3
:104C000080F31188BFF34F8FBFF36F8FFEE7A96862
:104C1000224E0120D1B3A6F1B40980463068E8B134
:104C2000F068C46804F11800FFF7F2FC201DFFF7DC
:104C3000EFFCE06A2A6908FA00F11143296100EBF0
:104C4000800109EB8100211DFFF726FDE06A29683C
:104C5000C96A8842E2D3C5F81C80DFE70CB1FFF7D0
:104C600007FAAC6944B14646FFF754FF00B1EE6164
:104C7000641EF9D10020A861E86938B1084901270C
:104C800038070860BFF34F8FBFF36F8FFFF730FD1A
:104C90003846BDE8F087000048000020AC0D002039
:104CA00004ED00E021F00042A2F16052B2F5801F55
:104CB00001F0004328BFD2F17F6C0BD95FEA001CE2
:104CC00043EAC20242EB507018BF704728BF20F081
:104CD00001007047B2F5801FBCBF184670474FEA0D
:104CE000410C1CF5001F02D2084600F04FBD70B504
:104CF00000F0CCFA00000089FFF7F6BF4FF000404B
:104D0000A0F580007047000010B591EA030F48BF7E
:104D100083F0004300F1E283841A71EB030C05D2A7
:104D2000121943EB0C03001B61EB0C01DFF824E1CB
:104D30004FEA1154A4EB135C1EEA430F18BF9EEA1E
:104D4000445F73D023EA0E03DCF1200E21EA045104
:104D500043F4801332D322FA0CFE10EB0E0023FA38
:104D60000CFE41EB0E01CCF1200E03FA0EFE10EB0F
:104D70000E0051F10001B1F5801FCCF1200E32D2AE
:104D800001EB045112FA0EF2BDE8104058BF704713
:104D9000401C38BF5FEA420218BF7047002814BFAA
:104DA00020F0010041F100014FEA410313F5001F1B
:104DB00038BF7047A1F1C04100F0B6BA012A43EBF9
:104DC0000302ACF1200CDCF11F0E32BF4FF0000EDD
:104DD00023FA0CF310EB030041EB0451B4EB115F29
:104DE000D0D0A1EB045101F5801149085FEA3000F1
:104DF00001EB04510ED350F1000038BF12FA0EFE41
:104E000008D1BDE81040C9E7401C38BF5FEA420244
:104E1000CAD1C3E7BDE810404FEA410313F5001FB4
:104E200038BF7047A1F1C04100F07EBA9EEA445FEE
:104E300008D011EA5E0FBDE8104004BF01F0004148
:104E400000207047BDE8104070B500F01FFA00BFA9
:104E500064FBBE3E0000E0FF2DE9C04130B4DFF846
:104E6000A0C23CEA111418BF3CEA131400F0EC8015
:104E700081EA03051CEA111444EAD57418BF1CEA40
:104E8000131500F0C780A4EB05044FF0004545EA78
:104E9000C12145EAC32341EA505143EA525304F188
:104EA0007F74994204F500344FEAC0204FEAC222D1
:104EB00008BF904200F09C804FEA13650FF2401645
:104EC000765D4FEA134506FB05F7C7F1807706FBD1
:104ED00007F74FEAD737A7FB03687642C8F5803853
:104EE000A7FB06CE38BFA8F1010807FB08E64FF084
:104EF000000EA6FB028CE6FB03CEDCF1000CCEF12B
:104F0000004E38BFAEF1010EA6FB0C584FF0000763
:104F10004FF00005E6FB0E87A1FB08C6A0FB07CEFD
:104F200016EB0E0645F10005E1FB076515F1E04EB5
:104F30007EBFA4F580345FEA46066D4116F1800716
:104F400045F100054FEA17274FEA066647EA05676D
:104F5000A6F1DE46B6F1805F4FEA15251FD9384627
:104F600024F0010C05EBC471BCF1FE6F01EB0C11D8
:104F700002D8F0BCBDE8008124425CBF01F5801E70
:104F80009EEAC47F02D4F0BCBDE80081244238D43C
:104F9000F0BCA1F1C041BDE8004100F0C5B94FEA45
:104FA000D22242EA43524FEAD323A7FB02864FEABA
:104FB000D02040EA415007FB03661EEA0E0F4FEA7D
:104FC000D12105FB026658BFA6EB0056B6EB005692
:104FD0004FEA520E4EEAC37E18EB0E0E56EB530EFE
:104FE000BDD518EB02085E417F1C55F10005B6E700
:104FF0004FF480154FF000074FF000064FF0000807
:10500000ADE7F0BC4FF0000001F1C04101F00041FC
:10501000BDE8008111EA0C1F0CEA131500D00CE06A
:1050200013EA0C1F00F025804FF00000F0BC81EA6D
:10503000030101F00041BDE80081F0BCBDE8004182
:1050400081EA030100F070B9F0BCBDE8004170B521
:1050500000F01CF9097EFC3E00F007B881EA03016C
:105060004FF0000001F00041704781EA030100F0B9
:105070005BB9F0BCBDE800414FF00000214970472A
:10508000FFFDFBF9F7F5F4F2F0EEEDEBE9E8E6E40D
:10509000E3E1E0DEDDDBDAD8D7D5D4D3D1D0CFCD94
:1050A000CCCBCAC8C7C6C5C4C2C1C0BFBEBDBCBBCD
:1050B000BAB9B8B7B6B5B4B3B2B1B0AFAEADACABC8
:1050C000AAA9A8A8A7A6A5A4A3A3A2A1A09F9F9EA2
:1050D0009D9C9C9B9A999998979796959594939354
:1050E000929191908F8F8E8E8D8C8C8B8B8A8989EB
:1050F000888887878685858484838382828181806E
:105100000000FF070000F87F10F0004248BF404257
:10511000B0FA80F310FA03F10AD0C3F11D0303F5CE
:1051200080634FEA415002EB035202EBD1217047FA
:105130004FF0000070470000DFF848C170B51CEA6E
:10514000111E1EBF1CEA13159EEA0C0F95EA0C0FE8
:1051500000F06F8081EA030423EA4C134EEAD47E08
:1051600021EA4C1141F4801143F48013AE44A1FBB9
:10517000024CA0FB0365AEF17F7E361955EB0C05A2
:10518000A1FB034C4CF10003A0FB021C16EB0C0628
:10519000654153F10003094218BF46F0010613F4BC
:1051A000007F0BD14FEA03314FEA0530340341EA67
:1051B000155140EA16506FF003020AE04FEAC3218E
:1051C0004FEAC520F40241EA555140EA56506FF0CB
:1051D000020202EB2E4201EB025585EACE710AD0A3
:1051E0005FEA440C18BF24F0004450F1000041F184
:1051F000000120EAD47040F2FE7C624500D270BD0E
:10520000A84214BF4FF080444FF04044002E08BF26
:105210000024BEF1806FA8BFA1F1C041BDE870407D
:1052200080F282804FF0000001F1C04101F00041A6
:1052300070479EEA0C0F0CEA131518BF95EA0C0F85
:1052400006D04FF0000081EA030E0EF0004170BD61
:1052500000F01CF88900013E00F007B800F009B822
:105260004FEA430C5FEA5C5C08D081EA030100F07E
:105270005BB84FEA410C5FEA5C5CF6D14FF000008E
:10528000014970470000FF070000F87F0EF1020E91
:105290002EF0030E5EF8046B364205D4012A43EB70
:1052A000030515F5001F12D8012841EB010C1CF570
:1052B000001F0CD80ED14FEAD17C15F5001F0CEB66
:1052C0004C0C0CF1020C08BF4CEBD37C04E04FF00B
:1052D000080C01E04FEAD37C0CEB4C0526FA05F6EE
:1052E00006F00706B6F1040C06D20EEB860CBDE8FC
:1052F00070404CF0010C6047DFE80CF0090B020233
:105300004FF000414FF00000A1F5002170BD19469B
:105310001046012851EB010418BFD4F5001484BFD6
:10532000002001F0004170BD0808A0F500114FEA0F
:10533000310170472DE9F04101F5801CBCF5001FDB
:10534000C0F2A9804FEA115C21EA0C510CF1FD0C6E
:1053500041F480115FEA5C0C0CF5C07C01D3400085
:10536000494130A4890241EA905187028E0E0A0C0D
:10537000A45D04FB04F602FB06F6C6F14046A4FB5E
:105380000662F60D46EA422606FB06F4A4FB01235C
:105390005242C3F1404338BF5B1EA6FB02420024C9
:1053A000E6FB0324D20B42EA4446A6FB0623A1FBFC
:1053B00002E2A3FB07E4E3FB61426442C2F1404E18
:1053C00038BFAEF1010EA6FB04234FF00002E6FB4E
:1053D0000E32A2FB03463400E2FB6264A1FB06E648
:1053E000A4FB07E8E4FB61687642C8F1405838BF87
:1053F000A8F10108A2FB06E4A3FB08E5E2FB685460
:10540000A1FB05E6A7FB04E8E1FB648618F1200593
:1054100056F10006A809A8F11B08B10908F03F08D9
:10542000B8F10A0F40EA86601CD901EB0C51BDE8C7
:10543000F08100BFFCF5EEE8E2DDD8D3CFCBC7C3E7
:10544000C0BDB9B6B4B1AEACA9A7A5A3A19F9D9BA1
:105450009A9896959392908F8D8C8B898887868564
:1054600084838281A0FB006800FB01F208EB420804
:10547000B8EB872807D5341858EB0104D5D5401C64
:1054800051F10001D1E7341A78EB0104CDD4401E6C
:1054900071F10001C9E75FEA4C0C5FEA9C5C0DD139
:1054A00005D34FF0000001F00041BDE8F081BDE8F8
:1054B000F04170B5FFF7EAFE6DDBFFBEBDE8F041DD
:1054C0004FF00000004970470000F87F10B591EAE6
:1054D000030F48BF83F000433FF51EAC841A71EB05
:1054E000030C07D212198CF0004C43EB0C03001B89
:1054F00061EB0C01DFF8A4E14FEA1154A4EB135C5B
:105500001EEA430F18BF9EEA445F00F0B08023EA12
:105510006E03524221EA0451C3EB6E0338BF5B1E97
:10552000DCF1200E25D322FA0CFE10EB0E0043FA1C
:105530000CFE41EB0E01CCF1200E03FA0EFE10EB37
:105540000E0051F10001CCF1200E29D412FA0EF216
:1055500001EB0451BDE8104058BF7047401C1CBF10
:10556000B2F1004F704700280CBF491C20F0010029
:10557000704712EB020E43EB030218BF4FF0010E0F
:105580004EEA4202ACF1200CDCF11E0E54D943FA73
:105590000CFE10EB0E0051F1FF31CCF11E0ED5D5F3
:1055A0000EF1010E12FA0EFE404141EB010101EB3A
:1055B000445C5FEA5C5C10D910EBDE7001EB0451D7
:1055C00038BFBEF1004FBDE8104018BF704700283B
:1055D0000CBF491C20F00100704730D24FEAD42C98
:1055E00011F5001124F400641BD0B1FA81F20B3ADA
:1055F000A41AA41ED2F12003914030FA03F31943F8
:10560000904001EBCC71002C01EB0451BDE810403F
:10561000A8BF704701F1C0414FF0000001F0004108
:105620007047B0FA80F310FA03F100D110BDE41A0C
:10563000173C4805C90AE4E701EB045110BD4910C5
:1056400001EB0451BDE810404FEA300002E04FF09A
:10565000000170474A0008BF0042F8D0B2F5001FB1
:1056600028BF704701F000414FF0000070479EEAEC
:10567000445F07D011EA5E0FBDE8104004BF00216F
:1056800000207047BDE8104070B5FFF7FFFD00BF78
:1056900040DFF63E83F00041104670470000E0FF17
:1056A00043004FEAD30C4FEA3C0C43401FBF400776
:1056B0000CF1605113F0FE4F70471CF0006F03D1E6
:1056C00000200CF0004170470CF0004343EA50709A
:1056D00010B540EACC0000F00EF800BF00000092C8
:1056E0004FEA0001FFF720BE4FF000414FF00000ED
:1056F000A1F5002170470EF1020E2EF0030E5EF8A8
:10570000044B244204D44FEA4102B2F17F4F11D836
:105710004FEA4003B3F17F4F0CD80ED14FEAD07C53
:10572000B2F17F4F0CEB4C0C0CF1020C08BF4CEBB0
:10573000D17C04E04FF0080C01E04FEAD17C0CEB87
:105740004C0324FA03F404F00704B4F1040C06D269
:105750000EEB840CBDE810404CF0010C6047DFE814
:105760000CF0070802024FF00040A0F5800010BDC9
:105770000846420018BFD2F1807288BF00F0004096
:1057800010BD4FF04070E1EE100A7047FF2141EA72
:10579000D050C005704700006C5800088D440008C8
:1057A0000000000000000000800000000000000079
:1057B0000000000044580008FD45000800000000FB
:1057C0000000000080000000000000000000000059
:1057D00054580008E53900080000000000000000EF
:1057E0008000000000000000000000006058000879
:1057F0007526000800000000000000008000000086
:105800000000000000000000785800087D26000815
:105810000000000000000000800000000000000008
:105820000000000000061016000610160000000020
:105830000000000001020304060708090000000040
:1058400001020304747269706F645F686561645477
:1058500061736B00636861737369735461736B0088
:1058600064656661756C745461736B0073686F6F07
:10587000745461736B0000007374617274546173CB
:105880006B000000A458000800000020B0000000D9
:10589000C401000854590008B0000020984F0000CF
:1058A000E00100080000000000000000000000000F
:1058B00000000000000000000000000000000000E8
:1058C0000100000010000000000000000024F400AF
:1058D00000000000000000000000000000000000C8
:1058E00000000000000000000000000000000000B8
:1058F00000000000000000000000000000000000A8
:105900000000000000000000000000000000000097
:105910000000000000000000000000000000000087
:105920000000000000000000000000000000000077
:105930000000000000000000000000000000000067
:10594000000000000000000000000000AAAAAAAAAF
:045950000000000053
:040000050800018965
:00000001FF
